{
  "_format": "hh-sol-artifact-1",
  "contractName": "Dungeons",
  "sourceName": "contracts/dungeons.sol",
  "abi": [
    {
      "inputs": [],
      "stateMutability": "nonpayable",
      "type": "constructor"
    },
    {
      "anonymous": false,
      "inputs": [
        {
          "indexed": true,
          "internalType": "address",
          "name": "owner",
          "type": "address"
        },
        {
          "indexed": true,
          "internalType": "address",
          "name": "approved",
          "type": "address"
        },
        {
          "indexed": true,
          "internalType": "uint256",
          "name": "tokenId",
          "type": "uint256"
        }
      ],
      "name": "Approval",
      "type": "event"
    },
    {
      "anonymous": false,
      "inputs": [
        {
          "indexed": true,
          "internalType": "address",
          "name": "owner",
          "type": "address"
        },
        {
          "indexed": true,
          "internalType": "address",
          "name": "operator",
          "type": "address"
        },
        {
          "indexed": false,
          "internalType": "bool",
          "name": "approved",
          "type": "bool"
        }
      ],
      "name": "ApprovalForAll",
      "type": "event"
    },
    {
      "anonymous": false,
      "inputs": [
        {
          "indexed": false,
          "internalType": "string",
          "name": "output",
          "type": "string"
        }
      ],
      "name": "Debug",
      "type": "event"
    },
    {
      "anonymous": false,
      "inputs": [
        {
          "indexed": true,
          "internalType": "address",
          "name": "previousOwner",
          "type": "address"
        },
        {
          "indexed": true,
          "internalType": "address",
          "name": "newOwner",
          "type": "address"
        }
      ],
      "name": "OwnershipTransferred",
      "type": "event"
    },
    {
      "anonymous": false,
      "inputs": [
        {
          "indexed": true,
          "internalType": "address",
          "name": "from",
          "type": "address"
        },
        {
          "indexed": true,
          "internalType": "address",
          "name": "to",
          "type": "address"
        },
        {
          "indexed": true,
          "internalType": "uint256",
          "name": "tokenId",
          "type": "uint256"
        }
      ],
      "name": "Transfer",
      "type": "event"
    },
    {
      "inputs": [
        {
          "internalType": "address",
          "name": "to",
          "type": "address"
        },
        {
          "internalType": "uint256",
          "name": "tokenId",
          "type": "uint256"
        }
      ],
      "name": "approve",
      "outputs": [],
      "stateMutability": "nonpayable",
      "type": "function"
    },
    {
      "inputs": [
        {
          "internalType": "address",
          "name": "owner",
          "type": "address"
        }
      ],
      "name": "balanceOf",
      "outputs": [
        {
          "internalType": "uint256",
          "name": "",
          "type": "uint256"
        }
      ],
      "stateMutability": "view",
      "type": "function"
    },
    {
      "inputs": [
        {
          "internalType": "uint256",
          "name": "tokenId",
          "type": "uint256"
        }
      ],
      "name": "claim",
      "outputs": [],
      "stateMutability": "nonpayable",
      "type": "function"
    },
    {
      "inputs": [
        {
          "internalType": "uint256",
          "name": "tokenId",
          "type": "uint256"
        }
      ],
      "name": "getApproved",
      "outputs": [
        {
          "internalType": "address",
          "name": "",
          "type": "address"
        }
      ],
      "stateMutability": "view",
      "type": "function"
    },
    {
      "inputs": [
        {
          "internalType": "uint256",
          "name": "tokenId",
          "type": "uint256"
        }
      ],
      "name": "getSeed",
      "outputs": [
        {
          "internalType": "uint256",
          "name": "",
          "type": "uint256"
        }
      ],
      "stateMutability": "view",
      "type": "function"
    },
    {
      "inputs": [
        {
          "internalType": "address",
          "name": "owner",
          "type": "address"
        },
        {
          "internalType": "address",
          "name": "operator",
          "type": "address"
        }
      ],
      "name": "isApprovedForAll",
      "outputs": [
        {
          "internalType": "bool",
          "name": "",
          "type": "bool"
        }
      ],
      "stateMutability": "view",
      "type": "function"
    },
    {
      "inputs": [],
      "name": "name",
      "outputs": [
        {
          "internalType": "string",
          "name": "",
          "type": "string"
        }
      ],
      "stateMutability": "view",
      "type": "function"
    },
    {
      "inputs": [],
      "name": "owner",
      "outputs": [
        {
          "internalType": "address",
          "name": "",
          "type": "address"
        }
      ],
      "stateMutability": "view",
      "type": "function"
    },
    {
      "inputs": [
        {
          "internalType": "uint256",
          "name": "tokenId",
          "type": "uint256"
        }
      ],
      "name": "ownerOf",
      "outputs": [
        {
          "internalType": "address",
          "name": "",
          "type": "address"
        }
      ],
      "stateMutability": "view",
      "type": "function"
    },
    {
      "inputs": [],
      "name": "renounceOwnership",
      "outputs": [],
      "stateMutability": "nonpayable",
      "type": "function"
    },
    {
      "inputs": [
        {
          "internalType": "address",
          "name": "from",
          "type": "address"
        },
        {
          "internalType": "address",
          "name": "to",
          "type": "address"
        },
        {
          "internalType": "uint256",
          "name": "tokenId",
          "type": "uint256"
        }
      ],
      "name": "safeTransferFrom",
      "outputs": [],
      "stateMutability": "nonpayable",
      "type": "function"
    },
    {
      "inputs": [
        {
          "internalType": "address",
          "name": "from",
          "type": "address"
        },
        {
          "internalType": "address",
          "name": "to",
          "type": "address"
        },
        {
          "internalType": "uint256",
          "name": "tokenId",
          "type": "uint256"
        },
        {
          "internalType": "bytes",
          "name": "_data",
          "type": "bytes"
        }
      ],
      "name": "safeTransferFrom",
      "outputs": [],
      "stateMutability": "nonpayable",
      "type": "function"
    },
    {
      "inputs": [
        {
          "internalType": "address",
          "name": "operator",
          "type": "address"
        },
        {
          "internalType": "bool",
          "name": "approved",
          "type": "bool"
        }
      ],
      "name": "setApprovalForAll",
      "outputs": [],
      "stateMutability": "nonpayable",
      "type": "function"
    },
    {
      "inputs": [
        {
          "internalType": "bytes4",
          "name": "interfaceId",
          "type": "bytes4"
        }
      ],
      "name": "supportsInterface",
      "outputs": [
        {
          "internalType": "bool",
          "name": "",
          "type": "bool"
        }
      ],
      "stateMutability": "view",
      "type": "function"
    },
    {
      "inputs": [],
      "name": "symbol",
      "outputs": [
        {
          "internalType": "string",
          "name": "",
          "type": "string"
        }
      ],
      "stateMutability": "view",
      "type": "function"
    },
    {
      "inputs": [
        {
          "internalType": "uint256",
          "name": "index",
          "type": "uint256"
        }
      ],
      "name": "tokenByIndex",
      "outputs": [
        {
          "internalType": "uint256",
          "name": "",
          "type": "uint256"
        }
      ],
      "stateMutability": "view",
      "type": "function"
    },
    {
      "inputs": [
        {
          "internalType": "address",
          "name": "owner",
          "type": "address"
        },
        {
          "internalType": "uint256",
          "name": "index",
          "type": "uint256"
        }
      ],
      "name": "tokenOfOwnerByIndex",
      "outputs": [
        {
          "internalType": "uint256",
          "name": "",
          "type": "uint256"
        }
      ],
      "stateMutability": "view",
      "type": "function"
    },
    {
      "inputs": [
        {
          "internalType": "uint256",
          "name": "tokenId",
          "type": "uint256"
        }
      ],
      "name": "tokenURI",
      "outputs": [
        {
          "internalType": "string",
          "name": "",
          "type": "string"
        }
      ],
      "stateMutability": "view",
      "type": "function"
    },
    {
      "inputs": [],
      "name": "totalSupply",
      "outputs": [
        {
          "internalType": "uint256",
          "name": "",
          "type": "uint256"
        }
      ],
      "stateMutability": "view",
      "type": "function"
    },
    {
      "inputs": [
        {
          "internalType": "address",
          "name": "from",
          "type": "address"
        },
        {
          "internalType": "address",
          "name": "to",
          "type": "address"
        },
        {
          "internalType": "uint256",
          "name": "tokenId",
          "type": "uint256"
        }
      ],
      "name": "transferFrom",
      "outputs": [],
      "stateMutability": "nonpayable",
      "type": "function"
    },
    {
      "inputs": [
        {
          "internalType": "address",
          "name": "newOwner",
          "type": "address"
        }
      ],
      "name": "transferOwnership",
      "outputs": [],
      "stateMutability": "nonpayable",
      "type": "function"
    }
  ],
  "bytecode": "0x608060405260405180608001604052806848173d6a60ee6ca9d56cffffffffffffffffffffffffff16815260200167882b8fdc300cf51d6cffffffffffffffffffffffffff16815260200167013a64c01f705eb96cffffffffffffffffffffffffff1681526020016c013da85c9761dff552be351ede6cffffffffffffffffffffffffff16815250600c9060046200009992919062000244565b50348015620000a757600080fd5b506040518060400160405280600881526020017f44756e67656f6e730000000000000000000000000000000000000000000000008152506040518060400160405280600881526020017f44554e47454f4e5300000000000000000000000000000000000000000000000081525081600090805190602001906200012c929190620002a7565b50806001908051906020019062000145929190620002a7565b5050506001600a8190555062000170620001646200017660201b60201c565b6200017e60201b60201c565b620003bc565b600033905090565b6000600b60009054906101000a900473ffffffffffffffffffffffffffffffffffffffff16905081600b60006101000a81548173ffffffffffffffffffffffffffffffffffffffff021916908373ffffffffffffffffffffffffffffffffffffffff1602179055508173ffffffffffffffffffffffffffffffffffffffff168173ffffffffffffffffffffffffffffffffffffffff167f8be0079c531659141344cd1fd0a4f28419497f9722a3daafe3b4186f6b6457e060405160405180910390a35050565b82805482825590600052602060002090810192821562000294579160200282015b828111156200029357825182906cffffffffffffffffffffffffff1690559160200191906001019062000265565b5b509050620002a3919062000338565b5090565b828054620002b59062000357565b90600052602060002090601f016020900481019282620002d9576000855562000325565b82601f10620002f457805160ff191683800117855562000325565b8280016001018555821562000325579182015b828111156200032457825182559160200191906001019062000307565b5b50905062000334919062000338565b5090565b5b808211156200035357600081600090555060010162000339565b5090565b600060028204905060018216806200037057607f821691505b602082108114156200038757620003866200038d565b5b50919050565b7f4e487b7100000000000000000000000000000000000000000000000000000000600052602260045260246000fd5b61305280620003cc6000396000f3fe608060405234801561001057600080fd5b50600436106101375760003560e01c80636352211e116100b8578063a22cb4651161007c578063a22cb4651461034e578063b88d4fde1461036a578063c87b56dd14610386578063e0d4ea37146103b6578063e985e9c5146103e6578063f2fde38b1461041657610137565b80636352211e146102a857806370a08231146102d8578063715018a6146103085780638da5cb5b1461031257806395d89b411461033057610137565b806323b872dd116100ff57806323b872dd146101f45780632f745c5914610210578063379607f51461024057806342842e0e1461025c5780634f6ccce71461027857610137565b806301ffc9a71461013c57806306fdde031461016c578063081812fc1461018a578063095ea7b3146101ba57806318160ddd146101d6575b600080fd5b61015660048036038101906101519190612230565b610432565b6040516101639190612a5f565b60405180910390f35b6101746104ac565b6040516101819190612a7a565b60405180910390f35b6101a4600480360381019061019f9190612282565b61053e565b6040516101b191906129f8565b60405180910390f35b6101d460048036038101906101cf91906121f4565b6105c3565b005b6101de6106db565b6040516101eb9190612cfc565b60405180910390f35b61020e600480360381019061020991906120ee565b6106e8565b005b61022a600480360381019061022591906121f4565b610748565b6040516102379190612cfc565b60405180910390f35b61025a60048036038101906102559190612282565b6107ed565b005b610276600480360381019061027191906120ee565b6108a6565b005b610292600480360381019061028d9190612282565b6108c6565b60405161029f9190612cfc565b60405180910390f35b6102c260048036038101906102bd9190612282565b61095d565b6040516102cf91906129f8565b60405180910390f35b6102f260048036038101906102ed9190612089565b610a0f565b6040516102ff9190612cfc565b60405180910390f35b610310610ac7565b005b61031a610b4f565b60405161032791906129f8565b60405180910390f35b610338610b79565b6040516103459190612a7a565b60405180910390f35b610368600480360381019061036391906121b8565b610c0b565b005b610384600480360381019061037f919061213d565b610d8c565b005b6103a0600480360381019061039b9190612282565b610dee565b6040516103ad9190612a7a565b60405180910390f35b6103d060048036038101906103cb9190612282565b610e2d565b6040516103dd9190612cfc565b60405180910390f35b61040060048036038101906103fb91906120b2565b610ed5565b60405161040d9190612a5f565b60405180910390f35b610430600480360381019061042b9190612089565b610f69565b005b60007f780e9d63000000000000000000000000000000000000000000000000000000007bffffffffffffffffffffffffffffffffffffffffffffffffffffffff1916827bffffffffffffffffffffffffffffffffffffffffffffffffffffffff191614806104a557506104a482611061565b5b9050919050565b6060600080546104bb90612ef0565b80601f01602080910402602001604051908101604052809291908181526020018280546104e790612ef0565b80156105345780601f1061050957610100808354040283529160200191610534565b820191906000526020600020905b81548152906001019060200180831161051757829003601f168201915b5050505050905090565b600061054982611143565b610588576040517f08c379a000000000000000000000000000000000000000000000000000000000815260040161057f90612bfc565b60405180910390fd5b6004600083815260200190815260200160002060009054906101000a900473ffffffffffffffffffffffffffffffffffffffff169050919050565b60006105ce8261095d565b90508073ffffffffffffffffffffffffffffffffffffffff168373ffffffffffffffffffffffffffffffffffffffff16141561063f576040517f08c379a000000000000000000000000000000000000000000000000000000000815260040161063690612c7c565b60405180910390fd5b8073ffffffffffffffffffffffffffffffffffffffff1661065e6111af565b73ffffffffffffffffffffffffffffffffffffffff16148061068d575061068c816106876111af565b610ed5565b5b6106cc576040517f08c379a00000000000000000000000000000000000000000000000000000000081526004016106c390612b7c565b60405180910390fd5b6106d683836111b7565b505050565b6000600880549050905090565b6106f96106f36111af565b82611270565b610738576040517f08c379a000000000000000000000000000000000000000000000000000000000815260040161072f90612c9c565b60405180910390fd5b61074383838361134e565b505050565b600061075383610a0f565b8210610794576040517f08c379a000000000000000000000000000000000000000000000000000000000815260040161078b90612a9c565b60405180910390fd5b600660008473ffffffffffffffffffffffffffffffffffffffff1673ffffffffffffffffffffffffffffffffffffffff168152602001908152602001600020600083815260200190815260200160002054905092915050565b6002600a541415610833576040517f08c379a000000000000000000000000000000000000000000000000000000000815260040161082a90612cdc565b60405180910390fd5b6002600a8190555060008111801561084b5750600581105b61088a576040517f08c379a000000000000000000000000000000000000000000000000000000000815260040161088190612c5c565b60405180910390fd5b61089b6108956111af565b826115aa565b6001600a8190555050565b6108c183838360405180602001604052806000815250610d8c565b505050565b60006108d06106db565b8210610911576040517f08c379a000000000000000000000000000000000000000000000000000000000815260040161090890612cbc565b60405180910390fd5b6008828154811061094b577f4e487b7100000000000000000000000000000000000000000000000000000000600052603260045260246000fd5b90600052602060002001549050919050565b6000806002600084815260200190815260200160002060009054906101000a900473ffffffffffffffffffffffffffffffffffffffff169050600073ffffffffffffffffffffffffffffffffffffffff168173ffffffffffffffffffffffffffffffffffffffff161415610a06576040517f08c379a00000000000000000000000000000000000000000000000000000000081526004016109fd90612bbc565b60405180910390fd5b80915050919050565b60008073ffffffffffffffffffffffffffffffffffffffff168273ffffffffffffffffffffffffffffffffffffffff161415610a80576040517f08c379a0000000000000000000000000000000000000000000000000000000008152600401610a7790612b9c565b60405180910390fd5b600360008373ffffffffffffffffffffffffffffffffffffffff1673ffffffffffffffffffffffffffffffffffffffff168152602001908152602001600020549050919050565b610acf6111af565b73ffffffffffffffffffffffffffffffffffffffff16610aed610b4f565b73ffffffffffffffffffffffffffffffffffffffff1614610b43576040517f08c379a0000000000000000000000000000000000000000000000000000000008152600401610b3a90612c1c565b60405180910390fd5b610b4d60006115c8565b565b6000600b60009054906101000a900473ffffffffffffffffffffffffffffffffffffffff16905090565b606060018054610b8890612ef0565b80601f0160208091040260200160405190810160405280929190818152602001828054610bb490612ef0565b8015610c015780601f10610bd657610100808354040283529160200191610c01565b820191906000526020600020905b815481529060010190602001808311610be457829003601f168201915b5050505050905090565b610c136111af565b73ffffffffffffffffffffffffffffffffffffffff168273ffffffffffffffffffffffffffffffffffffffff161415610c81576040517f08c379a0000000000000000000000000000000000000000000000000000000008152600401610c7890612b3c565b60405180910390fd5b8060056000610c8e6111af565b73ffffffffffffffffffffffffffffffffffffffff1673ffffffffffffffffffffffffffffffffffffffff16815260200190815260200160002060008473ffffffffffffffffffffffffffffffffffffffff1673ffffffffffffffffffffffffffffffffffffffff16815260200190815260200160002060006101000a81548160ff0219169083151502179055508173ffffffffffffffffffffffffffffffffffffffff16610d3b6111af565b73ffffffffffffffffffffffffffffffffffffffff167f17307eab39ab6107e8899845ad3d59bd9653f200f220920489ca2b5937696c3183604051610d809190612a5f565b60405180910390a35050565b610d9d610d976111af565b83611270565b610ddc576040517f08c379a0000000000000000000000000000000000000000000000000000000008152600401610dd390612c9c565b60405180910390fd5b610de88484848461168e565b50505050565b60606040518060400160405280600481526020017f74657374000000000000000000000000000000000000000000000000000000008152509050919050565b60008082118015610e3e5750600582105b610e7d576040517f08c379a0000000000000000000000000000000000000000000000000000000008152600401610e7490612c5c565b60405180910390fd5b600c600183610e8c9190612e06565b81548110610ec3577f4e487b7100000000000000000000000000000000000000000000000000000000600052603260045260246000fd5b90600052602060002001549050919050565b6000600560008473ffffffffffffffffffffffffffffffffffffffff1673ffffffffffffffffffffffffffffffffffffffff16815260200190815260200160002060008373ffffffffffffffffffffffffffffffffffffffff1673ffffffffffffffffffffffffffffffffffffffff16815260200190815260200160002060009054906101000a900460ff16905092915050565b610f716111af565b73ffffffffffffffffffffffffffffffffffffffff16610f8f610b4f565b73ffffffffffffffffffffffffffffffffffffffff1614610fe5576040517f08c379a0000000000000000000000000000000000000000000000000000000008152600401610fdc90612c1c565b60405180910390fd5b600073ffffffffffffffffffffffffffffffffffffffff168173ffffffffffffffffffffffffffffffffffffffff161415611055576040517f08c379a000000000000000000000000000000000000000000000000000000000815260040161104c90612adc565b60405180910390fd5b61105e816115c8565b50565b60007f80ac58cd000000000000000000000000000000000000000000000000000000007bffffffffffffffffffffffffffffffffffffffffffffffffffffffff1916827bffffffffffffffffffffffffffffffffffffffffffffffffffffffff1916148061112c57507f5b5e139f000000000000000000000000000000000000000000000000000000007bffffffffffffffffffffffffffffffffffffffffffffffffffffffff1916827bffffffffffffffffffffffffffffffffffffffffffffffffffffffff1916145b8061113c575061113b826116ea565b5b9050919050565b60008073ffffffffffffffffffffffffffffffffffffffff166002600084815260200190815260200160002060009054906101000a900473ffffffffffffffffffffffffffffffffffffffff1673ffffffffffffffffffffffffffffffffffffffff1614159050919050565b600033905090565b816004600083815260200190815260200160002060006101000a81548173ffffffffffffffffffffffffffffffffffffffff021916908373ffffffffffffffffffffffffffffffffffffffff160217905550808273ffffffffffffffffffffffffffffffffffffffff1661122a8361095d565b73ffffffffffffffffffffffffffffffffffffffff167f8c5be1e5ebec7d5bd14f71427d1e84f3dd0314c0f7b2291e5b200ac8c7c3b92560405160405180910390a45050565b600061127b82611143565b6112ba576040517f08c379a00000000000000000000000000000000000000000000000000000000081526004016112b190612b5c565b60405180910390fd5b60006112c58361095d565b90508073ffffffffffffffffffffffffffffffffffffffff168473ffffffffffffffffffffffffffffffffffffffff16148061133457508373ffffffffffffffffffffffffffffffffffffffff1661131c8461053e565b73ffffffffffffffffffffffffffffffffffffffff16145b8061134557506113448185610ed5565b5b91505092915050565b8273ffffffffffffffffffffffffffffffffffffffff1661136e8261095d565b73ffffffffffffffffffffffffffffffffffffffff16146113c4576040517f08c379a00000000000000000000000000000000000000000000000000000000081526004016113bb90612c3c565b60405180910390fd5b600073ffffffffffffffffffffffffffffffffffffffff168273ffffffffffffffffffffffffffffffffffffffff161415611434576040517f08c379a000000000000000000000000000000000000000000000000000000000815260040161142b90612b1c565b60405180910390fd5b61143f838383611754565b61144a6000826111b7565b6001600360008573ffffffffffffffffffffffffffffffffffffffff1673ffffffffffffffffffffffffffffffffffffffff168152602001908152602001600020600082825461149a9190612e06565b925050819055506001600360008473ffffffffffffffffffffffffffffffffffffffff1673ffffffffffffffffffffffffffffffffffffffff16815260200190815260200160002060008282546114f19190612db0565b92505081905550816002600083815260200190815260200160002060006101000a81548173ffffffffffffffffffffffffffffffffffffffff021916908373ffffffffffffffffffffffffffffffffffffffff160217905550808273ffffffffffffffffffffffffffffffffffffffff168473ffffffffffffffffffffffffffffffffffffffff167fddf252ad1be2c89b69c2b068fc378daa952ba7f163c4a11628f55a4df523b3ef60405160405180910390a4505050565b6115c4828260405180602001604052806000815250611868565b5050565b6000600b60009054906101000a900473ffffffffffffffffffffffffffffffffffffffff16905081600b60006101000a81548173ffffffffffffffffffffffffffffffffffffffff021916908373ffffffffffffffffffffffffffffffffffffffff1602179055508173ffffffffffffffffffffffffffffffffffffffff168173ffffffffffffffffffffffffffffffffffffffff167f8be0079c531659141344cd1fd0a4f28419497f9722a3daafe3b4186f6b6457e060405160405180910390a35050565b61169984848461134e565b6116a5848484846118c3565b6116e4576040517f08c379a00000000000000000000000000000000000000000000000000000000081526004016116db90612abc565b60405180910390fd5b50505050565b60007f01ffc9a7000000000000000000000000000000000000000000000000000000007bffffffffffffffffffffffffffffffffffffffffffffffffffffffff1916827bffffffffffffffffffffffffffffffffffffffffffffffffffffffff1916149050919050565b61175f838383611a5a565b600073ffffffffffffffffffffffffffffffffffffffff168373ffffffffffffffffffffffffffffffffffffffff1614156117a25761179d81611a5f565b6117e1565b8173ffffffffffffffffffffffffffffffffffffffff168373ffffffffffffffffffffffffffffffffffffffff16146117e0576117df8382611aa8565b5b5b600073ffffffffffffffffffffffffffffffffffffffff168273ffffffffffffffffffffffffffffffffffffffff1614156118245761181f81611c15565b611863565b8273ffffffffffffffffffffffffffffffffffffffff168273ffffffffffffffffffffffffffffffffffffffff1614611862576118618282611d58565b5b5b505050565b6118728383611dd7565b61187f60008484846118c3565b6118be576040517f08c379a00000000000000000000000000000000000000000000000000000000081526004016118b590612abc565b60405180910390fd5b505050565b60006118e48473ffffffffffffffffffffffffffffffffffffffff16611fa5565b15611a4d578373ffffffffffffffffffffffffffffffffffffffff1663150b7a0261190d6111af565b8786866040518563ffffffff1660e01b815260040161192f9493929190612a13565b602060405180830381600087803b15801561194957600080fd5b505af192505050801561197a57506040513d601f19601f820116820180604052508101906119779190612259565b60015b6119fd573d80600081146119aa576040519150601f19603f3d011682016040523d82523d6000602084013e6119af565b606091505b506000815114156119f5576040517f08c379a00000000000000000000000000000000000000000000000000000000081526004016119ec90612abc565b60405180910390fd5b805181602001fd5b63150b7a0260e01b7bffffffffffffffffffffffffffffffffffffffffffffffffffffffff1916817bffffffffffffffffffffffffffffffffffffffffffffffffffffffff191614915050611a52565b600190505b949350505050565b505050565b6008805490506009600083815260200190815260200160002081905550600881908060018154018082558091505060019003906000526020600020016000909190919091505550565b60006001611ab584610a0f565b611abf9190612e06565b9050600060076000848152602001908152602001600020549050818114611ba4576000600660008673ffffffffffffffffffffffffffffffffffffffff1673ffffffffffffffffffffffffffffffffffffffff168152602001908152602001600020600084815260200190815260200160002054905080600660008773ffffffffffffffffffffffffffffffffffffffff1673ffffffffffffffffffffffffffffffffffffffff168152602001908152602001600020600084815260200190815260200160002081905550816007600083815260200190815260200160002081905550505b6007600084815260200190815260200160002060009055600660008573ffffffffffffffffffffffffffffffffffffffff1673ffffffffffffffffffffffffffffffffffffffff16815260200190815260200160002060008381526020019081526020016000206000905550505050565b60006001600880549050611c299190612e06565b9050600060096000848152602001908152602001600020549050600060088381548110611c7f577f4e487b7100000000000000000000000000000000000000000000000000000000600052603260045260246000fd5b906000526020600020015490508060088381548110611cc7577f4e487b7100000000000000000000000000000000000000000000000000000000600052603260045260246000fd5b906000526020600020018190555081600960008381526020019081526020016000208190555060096000858152602001908152602001600020600090556008805480611d3c577f4e487b7100000000000000000000000000000000000000000000000000000000600052603160045260246000fd5b6001900381819060005260206000200160009055905550505050565b6000611d6383610a0f565b905081600660008573ffffffffffffffffffffffffffffffffffffffff1673ffffffffffffffffffffffffffffffffffffffff168152602001908152602001600020600083815260200190815260200160002081905550806007600084815260200190815260200160002081905550505050565b600073ffffffffffffffffffffffffffffffffffffffff168273ffffffffffffffffffffffffffffffffffffffff161415611e47576040517f08c379a0000000000000000000000000000000000000000000000000000000008152600401611e3e90612bdc565b60405180910390fd5b611e5081611143565b15611e90576040517f08c379a0000000000000000000000000000000000000000000000000000000008152600401611e8790612afc565b60405180910390fd5b611e9c60008383611754565b6001600360008473ffffffffffffffffffffffffffffffffffffffff1673ffffffffffffffffffffffffffffffffffffffff1681526020019081526020016000206000828254611eec9190612db0565b92505081905550816002600083815260200190815260200160002060006101000a81548173ffffffffffffffffffffffffffffffffffffffff021916908373ffffffffffffffffffffffffffffffffffffffff160217905550808273ffffffffffffffffffffffffffffffffffffffff16600073ffffffffffffffffffffffffffffffffffffffff167fddf252ad1be2c89b69c2b068fc378daa952ba7f163c4a11628f55a4df523b3ef60405160405180910390a45050565b600080823b905060008111915050919050565b6000611fcb611fc684612d48565b612d17565b905082815260208101848484011115611fe357600080fd5b611fee848285612eae565b509392505050565b60008135905061200581612fc0565b92915050565b60008135905061201a81612fd7565b92915050565b60008135905061202f81612fee565b92915050565b60008151905061204481612fee565b92915050565b600082601f83011261205b57600080fd5b813561206b848260208601611fb8565b91505092915050565b60008135905061208381613005565b92915050565b60006020828403121561209b57600080fd5b60006120a984828501611ff6565b91505092915050565b600080604083850312156120c557600080fd5b60006120d385828601611ff6565b92505060206120e485828601611ff6565b9150509250929050565b60008060006060848603121561210357600080fd5b600061211186828701611ff6565b935050602061212286828701611ff6565b925050604061213386828701612074565b9150509250925092565b6000806000806080858703121561215357600080fd5b600061216187828801611ff6565b945050602061217287828801611ff6565b935050604061218387828801612074565b925050606085013567ffffffffffffffff8111156121a057600080fd5b6121ac8782880161204a565b91505092959194509250565b600080604083850312156121cb57600080fd5b60006121d985828601611ff6565b92505060206121ea8582860161200b565b9150509250929050565b6000806040838503121561220757600080fd5b600061221585828601611ff6565b925050602061222685828601612074565b9150509250929050565b60006020828403121561224257600080fd5b600061225084828501612020565b91505092915050565b60006020828403121561226b57600080fd5b600061227984828501612035565b91505092915050565b60006020828403121561229457600080fd5b60006122a284828501612074565b91505092915050565b6122b481612e3a565b82525050565b6122c381612e4c565b82525050565b60006122d482612d78565b6122de8185612d8e565b93506122ee818560208601612ebd565b6122f781612faf565b840191505092915050565b600061230d82612d83565b6123178185612d9f565b9350612327818560208601612ebd565b61233081612faf565b840191505092915050565b6000612348602b83612d9f565b91507f455243373231456e756d657261626c653a206f776e657220696e646578206f7560008301527f74206f6620626f756e64730000000000000000000000000000000000000000006020830152604082019050919050565b60006123ae603283612d9f565b91507f4552433732313a207472616e7366657220746f206e6f6e20455243373231526560008301527f63656976657220696d706c656d656e74657200000000000000000000000000006020830152604082019050919050565b6000612414602683612d9f565b91507f4f776e61626c653a206e6577206f776e657220697320746865207a65726f206160008301527f64647265737300000000000000000000000000000000000000000000000000006020830152604082019050919050565b600061247a601c83612d9f565b91507f4552433732313a20746f6b656e20616c7265616479206d696e746564000000006000830152602082019050919050565b60006124ba602483612d9f565b91507f4552433732313a207472616e7366657220746f20746865207a65726f2061646460008301527f72657373000000000000000000000000000000000000000000000000000000006020830152604082019050919050565b6000612520601983612d9f565b91507f4552433732313a20617070726f766520746f2063616c6c6572000000000000006000830152602082019050919050565b6000612560602c83612d9f565b91507f4552433732313a206f70657261746f7220717565727920666f72206e6f6e657860008301527f697374656e7420746f6b656e00000000000000000000000000000000000000006020830152604082019050919050565b60006125c6603883612d9f565b91507f4552433732313a20617070726f76652063616c6c6572206973206e6f74206f7760008301527f6e6572206e6f7220617070726f76656420666f7220616c6c00000000000000006020830152604082019050919050565b600061262c602a83612d9f565b91507f4552433732313a2062616c616e636520717565727920666f7220746865207a6560008301527f726f2061646472657373000000000000000000000000000000000000000000006020830152604082019050919050565b6000612692602983612d9f565b91507f4552433732313a206f776e657220717565727920666f72206e6f6e657869737460008301527f656e7420746f6b656e00000000000000000000000000000000000000000000006020830152604082019050919050565b60006126f8602083612d9f565b91507f4552433732313a206d696e7420746f20746865207a65726f20616464726573736000830152602082019050919050565b6000612738602c83612d9f565b91507f4552433732313a20617070726f76656420717565727920666f72206e6f6e657860008301527f697374656e7420746f6b656e00000000000000000000000000000000000000006020830152604082019050919050565b600061279e602083612d9f565b91507f4f776e61626c653a2063616c6c6572206973206e6f7420746865206f776e65726000830152602082019050919050565b60006127de602983612d9f565b91507f4552433732313a207472616e73666572206f6620746f6b656e2074686174206960008301527f73206e6f74206f776e00000000000000000000000000000000000000000000006020830152604082019050919050565b6000612844601d83612d9f565b91507f546f6b656e204944206d757374206265206265747765656e20312d3e340000006000830152602082019050919050565b6000612884602183612d9f565b91507f4552433732313a20617070726f76616c20746f2063757272656e74206f776e6560008301527f72000000000000000000000000000000000000000000000000000000000000006020830152604082019050919050565b60006128ea603183612d9f565b91507f4552433732313a207472616e736665722063616c6c6572206973206e6f74206f60008301527f776e6572206e6f7220617070726f7665640000000000000000000000000000006020830152604082019050919050565b6000612950602c83612d9f565b91507f455243373231456e756d657261626c653a20676c6f62616c20696e646578206f60008301527f7574206f6620626f756e647300000000000000000000000000000000000000006020830152604082019050919050565b60006129b6601f83612d9f565b91507f5265656e7472616e637947756172643a207265656e7472616e742063616c6c006000830152602082019050919050565b6129f281612ea4565b82525050565b6000602082019050612a0d60008301846122ab565b92915050565b6000608082019050612a2860008301876122ab565b612a3560208301866122ab565b612a4260408301856129e9565b8181036060830152612a5481846122c9565b905095945050505050565b6000602082019050612a7460008301846122ba565b92915050565b60006020820190508181036000830152612a948184612302565b905092915050565b60006020820190508181036000830152612ab58161233b565b9050919050565b60006020820190508181036000830152612ad5816123a1565b9050919050565b60006020820190508181036000830152612af581612407565b9050919050565b60006020820190508181036000830152612b158161246d565b9050919050565b60006020820190508181036000830152612b35816124ad565b9050919050565b60006020820190508181036000830152612b5581612513565b9050919050565b60006020820190508181036000830152612b7581612553565b9050919050565b60006020820190508181036000830152612b95816125b9565b9050919050565b60006020820190508181036000830152612bb58161261f565b9050919050565b60006020820190508181036000830152612bd581612685565b9050919050565b60006020820190508181036000830152612bf5816126eb565b9050919050565b60006020820190508181036000830152612c158161272b565b9050919050565b60006020820190508181036000830152612c3581612791565b9050919050565b60006020820190508181036000830152612c55816127d1565b9050919050565b60006020820190508181036000830152612c7581612837565b9050919050565b60006020820190508181036000830152612c9581612877565b9050919050565b60006020820190508181036000830152612cb5816128dd565b9050919050565b60006020820190508181036000830152612cd581612943565b9050919050565b60006020820190508181036000830152612cf5816129a9565b9050919050565b6000602082019050612d1160008301846129e9565b92915050565b6000604051905081810181811067ffffffffffffffff82111715612d3e57612d3d612f80565b5b8060405250919050565b600067ffffffffffffffff821115612d6357612d62612f80565b5b601f19601f8301169050602081019050919050565b600081519050919050565b600081519050919050565b600082825260208201905092915050565b600082825260208201905092915050565b6000612dbb82612ea4565b9150612dc683612ea4565b9250827fffffffffffffffffffffffffffffffffffffffffffffffffffffffffffffffff03821115612dfb57612dfa612f22565b5b828201905092915050565b6000612e1182612ea4565b9150612e1c83612ea4565b925082821015612e2f57612e2e612f22565b5b828203905092915050565b6000612e4582612e84565b9050919050565b60008115159050919050565b60007fffffffff0000000000000000000000000000000000000000000000000000000082169050919050565b600073ffffffffffffffffffffffffffffffffffffffff82169050919050565b6000819050919050565b82818337600083830152505050565b60005b83811015612edb578082015181840152602081019050612ec0565b83811115612eea576000848401525b50505050565b60006002820490506001821680612f0857607f821691505b60208210811415612f1c57612f1b612f51565b5b50919050565b7f4e487b7100000000000000000000000000000000000000000000000000000000600052601160045260246000fd5b7f4e487b7100000000000000000000000000000000000000000000000000000000600052602260045260246000fd5b7f4e487b7100000000000000000000000000000000000000000000000000000000600052604160045260246000fd5b6000601f19601f8301169050919050565b612fc981612e3a565b8114612fd457600080fd5b50565b612fe081612e4c565b8114612feb57600080fd5b50565b612ff781612e58565b811461300257600080fd5b50565b61300e81612ea4565b811461301957600080fd5b5056fea2646970667358221220b330dca2dc954d6d4ca81679b6051ed0bdccba846d281a09f06947ca8fb5192664736f6c63430008000033",
  "linkReferences": {},
  "deployedLinkReferences": {}
}