{
  "_format": "hh-sol-artifact-1",
  "contractName": "Dungeons",
  "sourceName": "contracts/dungeons.sol",
  "abi": [
    {
      "inputs": [],
      "stateMutability": "nonpayable",
      "type": "constructor"
    },
    {
      "anonymous": false,
      "inputs": [
        {
          "indexed": true,
          "internalType": "address",
          "name": "owner",
          "type": "address"
        },
        {
          "indexed": true,
          "internalType": "address",
          "name": "approved",
          "type": "address"
        },
        {
          "indexed": true,
          "internalType": "uint256",
          "name": "tokenId",
          "type": "uint256"
        }
      ],
      "name": "Approval",
      "type": "event"
    },
    {
      "anonymous": false,
      "inputs": [
        {
          "indexed": true,
          "internalType": "address",
          "name": "owner",
          "type": "address"
        },
        {
          "indexed": true,
          "internalType": "address",
          "name": "operator",
          "type": "address"
        },
        {
          "indexed": false,
          "internalType": "bool",
          "name": "approved",
          "type": "bool"
        }
      ],
      "name": "ApprovalForAll",
      "type": "event"
    },
    {
      "anonymous": false,
      "inputs": [
        {
          "indexed": false,
          "internalType": "string",
          "name": "output",
          "type": "string"
        }
      ],
      "name": "Debug",
      "type": "event"
    },
    {
      "anonymous": false,
      "inputs": [
        {
          "indexed": true,
          "internalType": "address",
          "name": "previousOwner",
          "type": "address"
        },
        {
          "indexed": true,
          "internalType": "address",
          "name": "newOwner",
          "type": "address"
        }
      ],
      "name": "OwnershipTransferred",
      "type": "event"
    },
    {
      "anonymous": false,
      "inputs": [
        {
          "indexed": true,
          "internalType": "address",
          "name": "from",
          "type": "address"
        },
        {
          "indexed": true,
          "internalType": "address",
          "name": "to",
          "type": "address"
        },
        {
          "indexed": true,
          "internalType": "uint256",
          "name": "tokenId",
          "type": "uint256"
        }
      ],
      "name": "Transfer",
      "type": "event"
    },
    {
      "inputs": [
        {
          "internalType": "address",
          "name": "to",
          "type": "address"
        },
        {
          "internalType": "uint256",
          "name": "tokenId",
          "type": "uint256"
        }
      ],
      "name": "approve",
      "outputs": [],
      "stateMutability": "nonpayable",
      "type": "function"
    },
    {
      "inputs": [
        {
          "internalType": "address",
          "name": "owner",
          "type": "address"
        }
      ],
      "name": "balanceOf",
      "outputs": [
        {
          "internalType": "uint256",
          "name": "",
          "type": "uint256"
        }
      ],
      "stateMutability": "view",
      "type": "function"
    },
    {
      "inputs": [
        {
          "internalType": "uint256",
          "name": "tokenId",
          "type": "uint256"
        }
      ],
      "name": "claim",
      "outputs": [],
      "stateMutability": "nonpayable",
      "type": "function"
    },
    {
      "inputs": [
        {
          "internalType": "uint256",
          "name": "tokenId",
          "type": "uint256"
        }
      ],
      "name": "getApproved",
      "outputs": [
        {
          "internalType": "address",
          "name": "",
          "type": "address"
        }
      ],
      "stateMutability": "view",
      "type": "function"
    },
    {
      "inputs": [
        {
          "internalType": "uint256",
          "name": "tokenId",
          "type": "uint256"
        }
      ],
      "name": "getEntities",
      "outputs": [
        {
          "internalType": "uint8[]",
          "name": "",
          "type": "uint8[]"
        },
        {
          "internalType": "uint8[]",
          "name": "",
          "type": "uint8[]"
        },
        {
          "internalType": "uint8[]",
          "name": "",
          "type": "uint8[]"
        }
      ],
      "stateMutability": "pure",
      "type": "function"
    },
    {
      "inputs": [
        {
          "internalType": "uint256",
          "name": "tokenId",
          "type": "uint256"
        }
      ],
      "name": "getLayout",
      "outputs": [
        {
          "internalType": "bytes32",
          "name": "",
          "type": "bytes32"
        }
      ],
      "stateMutability": "view",
      "type": "function"
    },
    {
      "inputs": [
        {
          "internalType": "uint256",
          "name": "tokenId",
          "type": "uint256"
        }
      ],
      "name": "getSeed",
      "outputs": [
        {
          "internalType": "uint256",
          "name": "",
          "type": "uint256"
        }
      ],
      "stateMutability": "view",
      "type": "function"
    },
    {
      "inputs": [
        {
          "internalType": "uint256",
          "name": "tokenId",
          "type": "uint256"
        }
      ],
      "name": "getSize",
      "outputs": [
        {
          "internalType": "uint8",
          "name": "",
          "type": "uint8"
        }
      ],
      "stateMutability": "view",
      "type": "function"
    },
    {
      "inputs": [
        {
          "internalType": "address",
          "name": "owner",
          "type": "address"
        },
        {
          "internalType": "address",
          "name": "operator",
          "type": "address"
        }
      ],
      "name": "isApprovedForAll",
      "outputs": [
        {
          "internalType": "bool",
          "name": "",
          "type": "bool"
        }
      ],
      "stateMutability": "view",
      "type": "function"
    },
    {
      "inputs": [],
      "name": "name",
      "outputs": [
        {
          "internalType": "string",
          "name": "",
          "type": "string"
        }
      ],
      "stateMutability": "view",
      "type": "function"
    },
    {
      "inputs": [],
      "name": "owner",
      "outputs": [
        {
          "internalType": "address",
          "name": "",
          "type": "address"
        }
      ],
      "stateMutability": "view",
      "type": "function"
    },
    {
      "inputs": [
        {
          "internalType": "uint256",
          "name": "tokenId",
          "type": "uint256"
        }
      ],
      "name": "ownerOf",
      "outputs": [
        {
          "internalType": "address",
          "name": "",
          "type": "address"
        }
      ],
      "stateMutability": "view",
      "type": "function"
    },
    {
      "inputs": [],
      "name": "renounceOwnership",
      "outputs": [],
      "stateMutability": "nonpayable",
      "type": "function"
    },
    {
      "inputs": [
        {
          "internalType": "address",
          "name": "from",
          "type": "address"
        },
        {
          "internalType": "address",
          "name": "to",
          "type": "address"
        },
        {
          "internalType": "uint256",
          "name": "tokenId",
          "type": "uint256"
        }
      ],
      "name": "safeTransferFrom",
      "outputs": [],
      "stateMutability": "nonpayable",
      "type": "function"
    },
    {
      "inputs": [
        {
          "internalType": "address",
          "name": "from",
          "type": "address"
        },
        {
          "internalType": "address",
          "name": "to",
          "type": "address"
        },
        {
          "internalType": "uint256",
          "name": "tokenId",
          "type": "uint256"
        },
        {
          "internalType": "bytes",
          "name": "_data",
          "type": "bytes"
        }
      ],
      "name": "safeTransferFrom",
      "outputs": [],
      "stateMutability": "nonpayable",
      "type": "function"
    },
    {
      "inputs": [
        {
          "internalType": "address",
          "name": "operator",
          "type": "address"
        },
        {
          "internalType": "bool",
          "name": "approved",
          "type": "bool"
        }
      ],
      "name": "setApprovalForAll",
      "outputs": [],
      "stateMutability": "nonpayable",
      "type": "function"
    },
    {
      "inputs": [
        {
          "internalType": "bytes4",
          "name": "interfaceId",
          "type": "bytes4"
        }
      ],
      "name": "supportsInterface",
      "outputs": [
        {
          "internalType": "bool",
          "name": "",
          "type": "bool"
        }
      ],
      "stateMutability": "view",
      "type": "function"
    },
    {
      "inputs": [],
      "name": "symbol",
      "outputs": [
        {
          "internalType": "string",
          "name": "",
          "type": "string"
        }
      ],
      "stateMutability": "view",
      "type": "function"
    },
    {
      "inputs": [
        {
          "internalType": "uint256",
          "name": "index",
          "type": "uint256"
        }
      ],
      "name": "tokenByIndex",
      "outputs": [
        {
          "internalType": "uint256",
          "name": "",
          "type": "uint256"
        }
      ],
      "stateMutability": "view",
      "type": "function"
    },
    {
      "inputs": [
        {
          "internalType": "address",
          "name": "owner",
          "type": "address"
        },
        {
          "internalType": "uint256",
          "name": "index",
          "type": "uint256"
        }
      ],
      "name": "tokenOfOwnerByIndex",
      "outputs": [
        {
          "internalType": "uint256",
          "name": "",
          "type": "uint256"
        }
      ],
      "stateMutability": "view",
      "type": "function"
    },
    {
      "inputs": [
        {
          "internalType": "uint256",
          "name": "tokenId",
          "type": "uint256"
        }
      ],
      "name": "tokenURI",
      "outputs": [
        {
          "internalType": "string",
          "name": "",
          "type": "string"
        }
      ],
      "stateMutability": "view",
      "type": "function"
    },
    {
      "inputs": [],
      "name": "totalSupply",
      "outputs": [
        {
          "internalType": "uint256",
          "name": "",
          "type": "uint256"
        }
      ],
      "stateMutability": "view",
      "type": "function"
    },
    {
      "inputs": [
        {
          "internalType": "address",
          "name": "from",
          "type": "address"
        },
        {
          "internalType": "address",
          "name": "to",
          "type": "address"
        },
        {
          "internalType": "uint256",
          "name": "tokenId",
          "type": "uint256"
        }
      ],
      "name": "transferFrom",
      "outputs": [],
      "stateMutability": "nonpayable",
      "type": "function"
    },
    {
      "inputs": [
        {
          "internalType": "address",
          "name": "newOwner",
          "type": "address"
        }
      ],
      "name": "transferOwnership",
      "outputs": [],
      "stateMutability": "nonpayable",
      "type": "function"
    }
  ],
  "bytecode": "0x608060405260405180608001604052806848173d6a60ee6ca9d56cffffffffffffffffffffffffff16815260200167882b8fdc300cf51d6cffffffffffffffffffffffffff16815260200167013a64c01f705eb96cffffffffffffffffffffffffff1681526020016c013da85c9761dff552be351ede6cffffffffffffffffffffffffff16815250600c9060046200009992919062000391565b506040518060800160405280600e60ff168152602001600d60ff168152602001600a60ff168152602001600f60ff16815250600d906004620000dd929190620003f4565b506040518060800160405280780ffffffffe0ff03fc0ffbfc0ff03fc0ff03fffffffffffffff7cffffffffffffffffffffffffffffffffffffffffffffffffffffffffff1681526020017501ffffffe3ff1ff8c3c61f70ff2ff97fcffe7ff3ffff7cffffffffffffffffffffffffffffffffffffffffffffffffffffffffff1681526020016c0fffffc7f03c0f03f7ffffffff7cffffffffffffffffffffffffffffffffffffffffffffffffffffffffff1681526020017c01fffffffe007c00f801fb03f607e80fd03fe07fc0ffffffffffffffff7cffffffffffffffffffffffffffffffffffffffffffffffffffffffffff16815250600e906004620001e6929190620004a2565b50348015620001f457600080fd5b506040518060400160405280600881526020017f44756e67656f6e730000000000000000000000000000000000000000000000008152506040518060400160405280600881526020017f44554e47454f4e5300000000000000000000000000000000000000000000000081525081600090805190602001906200027992919062000515565b5080600190805190602001906200029292919062000515565b5050506001600a81905550620002bd620002b1620002c360201b60201c565b620002cb60201b60201c565b6200062a565b600033905090565b6000600b60009054906101000a900473ffffffffffffffffffffffffffffffffffffffff16905081600b60006101000a81548173ffffffffffffffffffffffffffffffffffffffff021916908373ffffffffffffffffffffffffffffffffffffffff1602179055508173ffffffffffffffffffffffffffffffffffffffff168173ffffffffffffffffffffffffffffffffffffffff167f8be0079c531659141344cd1fd0a4f28419497f9722a3daafe3b4186f6b6457e060405160405180910390a35050565b828054828255906000526020600020908101928215620003e1579160200282015b82811115620003e057825182906cffffffffffffffffffffffffff16905591602001919060010190620003b2565b5b509050620003f09190620005a6565b5090565b82805482825590600052602060002090601f016020900481019282156200048f5791602002820160005b838211156200045e57835183826101000a81548160ff021916908360ff16021790555092602001926001016020816000010492830192600103026200041e565b80156200048d5782816101000a81549060ff02191690556001016020816000010492830192600103026200045e565b505b5090506200049e9190620005a6565b5090565b82805482825590600052602060002090810192821562000502579160200282015b828111156200050157825182907cffffffffffffffffffffffffffffffffffffffffffffffffffffffffff16905591602001919060010190620004c3565b5b509050620005119190620005a6565b5090565b8280546200052390620005c5565b90600052602060002090601f01602090048101928262000547576000855562000593565b82601f106200056257805160ff191683800117855562000593565b8280016001018555821562000593579182015b828111156200059257825182559160200191906001019062000575565b5b509050620005a29190620005a6565b5090565b5b80821115620005c1576000816000905550600101620005a7565b5090565b60006002820490506001821680620005de57607f821691505b60208210811415620005f557620005f4620005fb565b5b50919050565b7f4e487b7100000000000000000000000000000000000000000000000000000000600052602260045260246000fd5b614012806200063a6000396000f3fe608060405234801561001057600080fd5b50600436106101585760003560e01c80636352211e116100c3578063b88d4fde1161007c578063b88d4fde146103eb578063c87b56dd14610407578063cc6dd94714610437578063e0d4ea3714610469578063e985e9c514610499578063f2fde38b146104c957610158565b80636352211e1461032957806370a0823114610359578063715018a6146103895780638da5cb5b1461039357806395d89b41146103b1578063a22cb465146103cf57610158565b806318160ddd1161011557806318160ddd1461025757806323b872dd146102755780632f745c5914610291578063379607f5146102c157806342842e0e146102dd5780634f6ccce7146102f957610158565b8063012921351461015d57806301ffc9a71461018d578063023c23db146101bd57806306fdde03146101ed578063081812fc1461020b578063095ea7b31461023b575b600080fd5b610177600480360381019061017291906130a3565b6104e5565b604051610184919061398a565b60405180910390f35b6101a760048036038101906101a29190613051565b610590565b6040516101b4919061396f565b60405180910390f35b6101d760048036038101906101d291906130a3565b61060a565b6040516101e49190613c42565b60405180910390f35b6101f56106c7565b60405161020291906139a5565b60405180910390f35b610225600480360381019061022091906130a3565b610759565b60405161023291906138bc565b60405180910390f35b61025560048036038101906102509190613015565b6107de565b005b61025f6108f6565b60405161026c9190613c27565b60405180910390f35b61028f600480360381019061028a9190612f0f565b610903565b005b6102ab60048036038101906102a69190613015565b610963565b6040516102b89190613c27565b60405180910390f35b6102db60048036038101906102d691906130a3565b610a08565b005b6102f760048036038101906102f29190612f0f565b610ac1565b005b610313600480360381019061030e91906130a3565b610ae1565b6040516103209190613c27565b60405180910390f35b610343600480360381019061033e91906130a3565b610b78565b60405161035091906138bc565b60405180910390f35b610373600480360381019061036e9190612eaa565b610c2a565b6040516103809190613c27565b60405180910390f35b610391610ce2565b005b61039b610d6a565b6040516103a891906138bc565b60405180910390f35b6103b9610d94565b6040516103c691906139a5565b60405180910390f35b6103e960048036038101906103e49190612fd9565b610e26565b005b61040560048036038101906104009190612f5e565b610fa7565b005b610421600480360381019061041c91906130a3565b611009565b60405161042e91906139a5565b60405180910390f35b610451600480360381019061044c91906130a3565b611048565b60405161046093929190613923565b60405180910390f35b610483600480360381019061047e91906130a3565b6114d9565b6040516104909190613c27565b60405180910390f35b6104b360048036038101906104ae9190612ed3565b611581565b6040516104c0919061396f565b60405180910390f35b6104e360048036038101906104de9190612eaa565b611615565b005b600080821180156104f65750600582105b610535576040517f08c379a000000000000000000000000000000000000000000000000000000000815260040161052c90613b87565b60405180910390fd5b600e6001836105449190613d85565b8154811061057b577f4e487b7100000000000000000000000000000000000000000000000000000000600052603260045260246000fd5b906000526020600020015460001b9050919050565b60007f780e9d63000000000000000000000000000000000000000000000000000000007bffffffffffffffffffffffffffffffffffffffffffffffffffffffff1916827bffffffffffffffffffffffffffffffffffffffffffffffffffffffff1916148061060357506106028261170d565b5b9050919050565b6000808211801561061b5750600582105b61065a576040517f08c379a000000000000000000000000000000000000000000000000000000000815260040161065190613b87565b60405180910390fd5b600d6001836106699190613d85565b815481106106a0577f4e487b7100000000000000000000000000000000000000000000000000000000600052603260045260246000fd5b90600052602060002090602091828204019190069054906101000a900460ff169050919050565b6060600080546106d690613e86565b80601f016020809104026020016040519081016040528092919081815260200182805461070290613e86565b801561074f5780601f106107245761010080835404028352916020019161074f565b820191906000526020600020905b81548152906001019060200180831161073257829003601f168201915b5050505050905090565b6000610764826117ef565b6107a3576040517f08c379a000000000000000000000000000000000000000000000000000000000815260040161079a90613b27565b60405180910390fd5b6004600083815260200190815260200160002060009054906101000a900473ffffffffffffffffffffffffffffffffffffffff169050919050565b60006107e982610b78565b90508073ffffffffffffffffffffffffffffffffffffffff168373ffffffffffffffffffffffffffffffffffffffff16141561085a576040517f08c379a000000000000000000000000000000000000000000000000000000000815260040161085190613ba7565b60405180910390fd5b8073ffffffffffffffffffffffffffffffffffffffff1661087961185b565b73ffffffffffffffffffffffffffffffffffffffff1614806108a857506108a7816108a261185b565b611581565b5b6108e7576040517f08c379a00000000000000000000000000000000000000000000000000000000081526004016108de90613aa7565b60405180910390fd5b6108f18383611863565b505050565b6000600880549050905090565b61091461090e61185b565b8261191c565b610953576040517f08c379a000000000000000000000000000000000000000000000000000000000815260040161094a90613bc7565b60405180910390fd5b61095e8383836119fa565b505050565b600061096e83610c2a565b82106109af576040517f08c379a00000000000000000000000000000000000000000000000000000000081526004016109a6906139c7565b60405180910390fd5b600660008473ffffffffffffffffffffffffffffffffffffffff1673ffffffffffffffffffffffffffffffffffffffff168152602001908152602001600020600083815260200190815260200160002054905092915050565b6002600a541415610a4e576040517f08c379a0000000000000000000000000000000000000000000000000000000008152600401610a4590613c07565b60405180910390fd5b6002600a81905550600081118015610a665750600581105b610aa5576040517f08c379a0000000000000000000000000000000000000000000000000000000008152600401610a9c90613b87565b60405180910390fd5b610ab6610ab061185b565b82611c56565b6001600a8190555050565b610adc83838360405180602001604052806000815250610fa7565b505050565b6000610aeb6108f6565b8210610b2c576040517f08c379a0000000000000000000000000000000000000000000000000000000008152600401610b2390613be7565b60405180910390fd5b60088281548110610b66577f4e487b7100000000000000000000000000000000000000000000000000000000600052603260045260246000fd5b90600052602060002001549050919050565b6000806002600084815260200190815260200160002060009054906101000a900473ffffffffffffffffffffffffffffffffffffffff169050600073ffffffffffffffffffffffffffffffffffffffff168173ffffffffffffffffffffffffffffffffffffffff161415610c21576040517f08c379a0000000000000000000000000000000000000000000000000000000008152600401610c1890613ae7565b60405180910390fd5b80915050919050565b60008073ffffffffffffffffffffffffffffffffffffffff168273ffffffffffffffffffffffffffffffffffffffff161415610c9b576040517f08c379a0000000000000000000000000000000000000000000000000000000008152600401610c9290613ac7565b60405180910390fd5b600360008373ffffffffffffffffffffffffffffffffffffffff1673ffffffffffffffffffffffffffffffffffffffff168152602001908152602001600020549050919050565b610cea61185b565b73ffffffffffffffffffffffffffffffffffffffff16610d08610d6a565b73ffffffffffffffffffffffffffffffffffffffff1614610d5e576040517f08c379a0000000000000000000000000000000000000000000000000000000008152600401610d5590613b47565b60405180910390fd5b610d686000611c74565b565b6000600b60009054906101000a900473ffffffffffffffffffffffffffffffffffffffff16905090565b606060018054610da390613e86565b80601f0160208091040260200160405190810160405280929190818152602001828054610dcf90613e86565b8015610e1c5780601f10610df157610100808354040283529160200191610e1c565b820191906000526020600020905b815481529060010190602001808311610dff57829003601f168201915b5050505050905090565b610e2e61185b565b73ffffffffffffffffffffffffffffffffffffffff168273ffffffffffffffffffffffffffffffffffffffff161415610e9c576040517f08c379a0000000000000000000000000000000000000000000000000000000008152600401610e9390613a67565b60405180910390fd5b8060056000610ea961185b565b73ffffffffffffffffffffffffffffffffffffffff1673ffffffffffffffffffffffffffffffffffffffff16815260200190815260200160002060008473ffffffffffffffffffffffffffffffffffffffff1673ffffffffffffffffffffffffffffffffffffffff16815260200190815260200160002060006101000a81548160ff0219169083151502179055508173ffffffffffffffffffffffffffffffffffffffff16610f5661185b565b73ffffffffffffffffffffffffffffffffffffffff167f17307eab39ab6107e8899845ad3d59bd9653f200f220920489ca2b5937696c3183604051610f9b919061396f565b60405180910390a35050565b610fb8610fb261185b565b8361191c565b610ff7576040517f08c379a0000000000000000000000000000000000000000000000000000000008152600401610fee90613bc7565b60405180910390fd5b61100384848484611d3a565b50505050565b60606040518060400160405280600481526020017f74657374000000000000000000000000000000000000000000000000000000008152509050919050565b606080606060008411801561105d5750600584105b61109c576040517f08c379a000000000000000000000000000000000000000000000000000000000815260040161109390613b87565b60405180910390fd5b6000600467ffffffffffffffff8111156110df577f4e487b7100000000000000000000000000000000000000000000000000000000600052604160045260246000fd5b60405190808252806020026020018201604052801561111857816020015b611105612d9c565b8152602001906001900390816110fd5790505b509050611123611d96565b905060006002905060008167ffffffffffffffff81111561116d577f4e487b7100000000000000000000000000000000000000000000000000000000600052604160045260246000fd5b60405190808252806020026020018201604052801561119b5781602001602082028036833780820191505090505b50905060008267ffffffffffffffff8111156111e0577f4e487b7100000000000000000000000000000000000000000000000000000000600052604160045260246000fd5b60405190808252806020026020018201604052801561120e5781602001602082028036833780820191505090505b50905060008367ffffffffffffffff811115611253577f4e487b7100000000000000000000000000000000000000000000000000000000600052604160045260246000fd5b6040519080825280602002602001820160405280156112815781602001602082028036833780820191505090505b50905060005b848160ff1610156114c35760008660018c6112a29190613d85565b815181106112d9577f4e487b7100000000000000000000000000000000000000000000000000000000600052603260045260246000fd5b6020026020010151600001519050808260ff1681518110611323577f4e487b7100000000000000000000000000000000000000000000000000000000600052603260045260246000fd5b602002602001015160000151858360ff168151811061136b577f4e487b7100000000000000000000000000000000000000000000000000000000600052603260045260246000fd5b602002602001019060ff16908160ff1681525050808260ff16815181106113bb577f4e487b7100000000000000000000000000000000000000000000000000000000600052603260045260246000fd5b602002602001015160200151848360ff1681518110611403577f4e487b7100000000000000000000000000000000000000000000000000000000600052603260045260246000fd5b602002602001019060ff16908160ff1681525050808260ff1681518110611453577f4e487b7100000000000000000000000000000000000000000000000000000000600052603260045260246000fd5b602002602001015160400151838360ff168151811061149b577f4e487b7100000000000000000000000000000000000000000000000000000000600052603260045260246000fd5b602002602001019060ff16908160ff16815250505080806114bb90613eb8565b915050611287565b5082828297509750975050505050509193909250565b600080821180156114ea5750600582105b611529576040517f08c379a000000000000000000000000000000000000000000000000000000000815260040161152090613b87565b60405180910390fd5b600c6001836115389190613d85565b8154811061156f577f4e487b7100000000000000000000000000000000000000000000000000000000600052603260045260246000fd5b90600052602060002001549050919050565b6000600560008473ffffffffffffffffffffffffffffffffffffffff1673ffffffffffffffffffffffffffffffffffffffff16815260200190815260200160002060008373ffffffffffffffffffffffffffffffffffffffff1673ffffffffffffffffffffffffffffffffffffffff16815260200190815260200160002060009054906101000a900460ff16905092915050565b61161d61185b565b73ffffffffffffffffffffffffffffffffffffffff1661163b610d6a565b73ffffffffffffffffffffffffffffffffffffffff1614611691576040517f08c379a000000000000000000000000000000000000000000000000000000000815260040161168890613b47565b60405180910390fd5b600073ffffffffffffffffffffffffffffffffffffffff168173ffffffffffffffffffffffffffffffffffffffff161415611701576040517f08c379a00000000000000000000000000000000000000000000000000000000081526004016116f890613a07565b60405180910390fd5b61170a81611c74565b50565b60007f80ac58cd000000000000000000000000000000000000000000000000000000007bffffffffffffffffffffffffffffffffffffffffffffffffffffffff1916827bffffffffffffffffffffffffffffffffffffffffffffffffffffffff191614806117d857507f5b5e139f000000000000000000000000000000000000000000000000000000007bffffffffffffffffffffffffffffffffffffffffffffffffffffffff1916827bffffffffffffffffffffffffffffffffffffffffffffffffffffffff1916145b806117e857506117e7826124ce565b5b9050919050565b60008073ffffffffffffffffffffffffffffffffffffffff166002600084815260200190815260200160002060009054906101000a900473ffffffffffffffffffffffffffffffffffffffff1673ffffffffffffffffffffffffffffffffffffffff1614159050919050565b600033905090565b816004600083815260200190815260200160002060006101000a81548173ffffffffffffffffffffffffffffffffffffffff021916908373ffffffffffffffffffffffffffffffffffffffff160217905550808273ffffffffffffffffffffffffffffffffffffffff166118d683610b78565b73ffffffffffffffffffffffffffffffffffffffff167f8c5be1e5ebec7d5bd14f71427d1e84f3dd0314c0f7b2291e5b200ac8c7c3b92560405160405180910390a45050565b6000611927826117ef565b611966576040517f08c379a000000000000000000000000000000000000000000000000000000000815260040161195d90613a87565b60405180910390fd5b600061197183610b78565b90508073ffffffffffffffffffffffffffffffffffffffff168473ffffffffffffffffffffffffffffffffffffffff1614806119e057508373ffffffffffffffffffffffffffffffffffffffff166119c884610759565b73ffffffffffffffffffffffffffffffffffffffff16145b806119f157506119f08185611581565b5b91505092915050565b8273ffffffffffffffffffffffffffffffffffffffff16611a1a82610b78565b73ffffffffffffffffffffffffffffffffffffffff1614611a70576040517f08c379a0000000000000000000000000000000000000000000000000000000008152600401611a6790613b67565b60405180910390fd5b600073ffffffffffffffffffffffffffffffffffffffff168273ffffffffffffffffffffffffffffffffffffffff161415611ae0576040517f08c379a0000000000000000000000000000000000000000000000000000000008152600401611ad790613a47565b60405180910390fd5b611aeb838383612538565b611af6600082611863565b6001600360008573ffffffffffffffffffffffffffffffffffffffff1673ffffffffffffffffffffffffffffffffffffffff1681526020019081526020016000206000828254611b469190613d85565b925050819055506001600360008473ffffffffffffffffffffffffffffffffffffffff1673ffffffffffffffffffffffffffffffffffffffff1681526020019081526020016000206000828254611b9d9190613d2f565b92505081905550816002600083815260200190815260200160002060006101000a81548173ffffffffffffffffffffffffffffffffffffffff021916908373ffffffffffffffffffffffffffffffffffffffff160217905550808273ffffffffffffffffffffffffffffffffffffffff168473ffffffffffffffffffffffffffffffffffffffff167fddf252ad1be2c89b69c2b068fc378daa952ba7f163c4a11628f55a4df523b3ef60405160405180910390a4505050565b611c7082826040518060200160405280600081525061264c565b5050565b6000600b60009054906101000a900473ffffffffffffffffffffffffffffffffffffffff16905081600b60006101000a81548173ffffffffffffffffffffffffffffffffffffffff021916908373ffffffffffffffffffffffffffffffffffffffff1602179055508173ffffffffffffffffffffffffffffffffffffffff168173ffffffffffffffffffffffffffffffffffffffff167f8be0079c531659141344cd1fd0a4f28419497f9722a3daafe3b4186f6b6457e060405160405180910390a35050565b611d458484846119fa565b611d51848484846126a7565b611d90576040517f08c379a0000000000000000000000000000000000000000000000000000000008152600401611d87906139e7565b60405180910390fd5b50505050565b60606000600267ffffffffffffffff811115611ddb577f4e487b7100000000000000000000000000000000000000000000000000000000600052604160045260246000fd5b604051908082528060200260200182016040528015611e1457816020015b611e01612daf565b815260200190600190039081611df95790505b5090506000600267ffffffffffffffff811115611e5a577f4e487b7100000000000000000000000000000000000000000000000000000000600052604160045260246000fd5b604051908082528060200260200182016040528015611e9357816020015b611e80612daf565b815260200190600190039081611e785790505b5090506000600267ffffffffffffffff811115611ed9577f4e487b7100000000000000000000000000000000000000000000000000000000600052604160045260246000fd5b604051908082528060200260200182016040528015611f1257816020015b611eff612daf565b815260200190600190039081611ef75790505b5090506000600267ffffffffffffffff811115611f58577f4e487b7100000000000000000000000000000000000000000000000000000000600052604160045260246000fd5b604051908082528060200260200182016040528015611f9157816020015b611f7e612daf565b815260200190600190039081611f765790505b5090506040518060600160405280600760ff168152602001600560ff168152602001600160ff1681525084600081518110611ff5577f4e487b7100000000000000000000000000000000000000000000000000000000600052603260045260246000fd5b60200260200101819052506040518060600160405280600660ff168152602001600860ff168152602001600060ff1681525084600181518110612061577f4e487b7100000000000000000000000000000000000000000000000000000000600052603260045260246000fd5b60200260200101819052506040518060600160405280600360ff168152602001600560ff168152602001600060ff16815250836000815181106120cd577f4e487b7100000000000000000000000000000000000000000000000000000000600052603260045260246000fd5b60200260200101819052506040518060600160405280600660ff168152602001600160ff168152602001600160ff1681525083600181518110612139577f4e487b7100000000000000000000000000000000000000000000000000000000600052603260045260246000fd5b60200260200101819052506040518060600160405280600560ff168152602001600160ff168152602001600160ff16815250826000815181106121a5577f4e487b7100000000000000000000000000000000000000000000000000000000600052603260045260246000fd5b60200260200101819052506040518060600160405280600360ff168152602001600260ff168152602001600060ff1681525082600181518110612211577f4e487b7100000000000000000000000000000000000000000000000000000000600052603260045260246000fd5b60200260200101819052506040518060600160405280600560ff168152602001600160ff168152602001600160ff168152508160008151811061227d577f4e487b7100000000000000000000000000000000000000000000000000000000600052603260045260246000fd5b60200260200101819052506040518060600160405280600360ff168152602001600260ff168152602001600060ff16815250816001815181106122e9577f4e487b7100000000000000000000000000000000000000000000000000000000600052603260045260246000fd5b60200260200101819052506000600467ffffffffffffffff811115612337577f4e487b7100000000000000000000000000000000000000000000000000000000600052604160045260246000fd5b60405190808252806020026020018201604052801561237057816020015b61235d612d9c565b8152602001906001900390816123555790505b509050604051806020016040528086815250816000815181106123bc577f4e487b7100000000000000000000000000000000000000000000000000000000600052603260045260246000fd5b602002602001018190525060405180602001604052808581525081600181518110612410577f4e487b7100000000000000000000000000000000000000000000000000000000600052603260045260246000fd5b602002602001018190525060405180602001604052808481525081600281518110612464577f4e487b7100000000000000000000000000000000000000000000000000000000600052603260045260246000fd5b6020026020010181905250604051806020016040528083815250816003815181106124b8577f4e487b7100000000000000000000000000000000000000000000000000000000600052603260045260246000fd5b6020026020010181905250809550505050505090565b60007f01ffc9a7000000000000000000000000000000000000000000000000000000007bffffffffffffffffffffffffffffffffffffffffffffffffffffffff1916827bffffffffffffffffffffffffffffffffffffffffffffffffffffffff1916149050919050565b61254383838361283e565b600073ffffffffffffffffffffffffffffffffffffffff168373ffffffffffffffffffffffffffffffffffffffff1614156125865761258181612843565b6125c5565b8173ffffffffffffffffffffffffffffffffffffffff168373ffffffffffffffffffffffffffffffffffffffff16146125c4576125c3838261288c565b5b5b600073ffffffffffffffffffffffffffffffffffffffff168273ffffffffffffffffffffffffffffffffffffffff16141561260857612603816129f9565b612647565b8273ffffffffffffffffffffffffffffffffffffffff168273ffffffffffffffffffffffffffffffffffffffff1614612646576126458282612b3c565b5b5b505050565b6126568383612bbb565b61266360008484846126a7565b6126a2576040517f08c379a0000000000000000000000000000000000000000000000000000000008152600401612699906139e7565b60405180910390fd5b505050565b60006126c88473ffffffffffffffffffffffffffffffffffffffff16612d89565b15612831578373ffffffffffffffffffffffffffffffffffffffff1663150b7a026126f161185b565b8786866040518563ffffffff1660e01b815260040161271394939291906138d7565b602060405180830381600087803b15801561272d57600080fd5b505af192505050801561275e57506040513d601f19601f8201168201806040525081019061275b919061307a565b60015b6127e1573d806000811461278e576040519150601f19603f3d011682016040523d82523d6000602084013e612793565b606091505b506000815114156127d9576040517f08c379a00000000000000000000000000000000000000000000000000000000081526004016127d0906139e7565b60405180910390fd5b805181602001fd5b63150b7a0260e01b7bffffffffffffffffffffffffffffffffffffffffffffffffffffffff1916817bffffffffffffffffffffffffffffffffffffffffffffffffffffffff191614915050612836565b600190505b949350505050565b505050565b6008805490506009600083815260200190815260200160002081905550600881908060018154018082558091505060019003906000526020600020016000909190919091505550565b6000600161289984610c2a565b6128a39190613d85565b9050600060076000848152602001908152602001600020549050818114612988576000600660008673ffffffffffffffffffffffffffffffffffffffff1673ffffffffffffffffffffffffffffffffffffffff168152602001908152602001600020600084815260200190815260200160002054905080600660008773ffffffffffffffffffffffffffffffffffffffff1673ffffffffffffffffffffffffffffffffffffffff168152602001908152602001600020600084815260200190815260200160002081905550816007600083815260200190815260200160002081905550505b6007600084815260200190815260200160002060009055600660008573ffffffffffffffffffffffffffffffffffffffff1673ffffffffffffffffffffffffffffffffffffffff16815260200190815260200160002060008381526020019081526020016000206000905550505050565b60006001600880549050612a0d9190613d85565b9050600060096000848152602001908152602001600020549050600060088381548110612a63577f4e487b7100000000000000000000000000000000000000000000000000000000600052603260045260246000fd5b906000526020600020015490508060088381548110612aab577f4e487b7100000000000000000000000000000000000000000000000000000000600052603260045260246000fd5b906000526020600020018190555081600960008381526020019081526020016000208190555060096000858152602001908152602001600020600090556008805480612b20577f4e487b7100000000000000000000000000000000000000000000000000000000600052603160045260246000fd5b6001900381819060005260206000200160009055905550505050565b6000612b4783610c2a565b905081600660008573ffffffffffffffffffffffffffffffffffffffff1673ffffffffffffffffffffffffffffffffffffffff168152602001908152602001600020600083815260200190815260200160002081905550806007600084815260200190815260200160002081905550505050565b600073ffffffffffffffffffffffffffffffffffffffff168273ffffffffffffffffffffffffffffffffffffffff161415612c2b576040517f08c379a0000000000000000000000000000000000000000000000000000000008152600401612c2290613b07565b60405180910390fd5b612c34816117ef565b15612c74576040517f08c379a0000000000000000000000000000000000000000000000000000000008152600401612c6b90613a27565b60405180910390fd5b612c8060008383612538565b6001600360008473ffffffffffffffffffffffffffffffffffffffff1673ffffffffffffffffffffffffffffffffffffffff1681526020019081526020016000206000828254612cd09190613d2f565b92505081905550816002600083815260200190815260200160002060006101000a81548173ffffffffffffffffffffffffffffffffffffffff021916908373ffffffffffffffffffffffffffffffffffffffff160217905550808273ffffffffffffffffffffffffffffffffffffffff16600073ffffffffffffffffffffffffffffffffffffffff167fddf252ad1be2c89b69c2b068fc378daa952ba7f163c4a11628f55a4df523b3ef60405160405180910390a45050565b600080823b905060008111915050919050565b6040518060200160405280606081525090565b6040518060600160405280600060ff168152602001600060ff168152602001600060ff1681525090565b6000612dec612de784613c8e565b613c5d565b905082815260208101848484011115612e0457600080fd5b612e0f848285613e44565b509392505050565b600081359050612e2681613f80565b92915050565b600081359050612e3b81613f97565b92915050565b600081359050612e5081613fae565b92915050565b600081519050612e6581613fae565b92915050565b600082601f830112612e7c57600080fd5b8135612e8c848260208601612dd9565b91505092915050565b600081359050612ea481613fc5565b92915050565b600060208284031215612ebc57600080fd5b6000612eca84828501612e17565b91505092915050565b60008060408385031215612ee657600080fd5b6000612ef485828601612e17565b9250506020612f0585828601612e17565b9150509250929050565b600080600060608486031215612f2457600080fd5b6000612f3286828701612e17565b9350506020612f4386828701612e17565b9250506040612f5486828701612e95565b9150509250925092565b60008060008060808587031215612f7457600080fd5b6000612f8287828801612e17565b9450506020612f9387828801612e17565b9350506040612fa487828801612e95565b925050606085013567ffffffffffffffff811115612fc157600080fd5b612fcd87828801612e6b565b91505092959194509250565b60008060408385031215612fec57600080fd5b6000612ffa85828601612e17565b925050602061300b85828601612e2c565b9150509250929050565b6000806040838503121561302857600080fd5b600061303685828601612e17565b925050602061304785828601612e95565b9150509250929050565b60006020828403121561306357600080fd5b600061307184828501612e41565b91505092915050565b60006020828403121561308c57600080fd5b600061309a84828501612e56565b91505092915050565b6000602082840312156130b557600080fd5b60006130c384828501612e95565b91505092915050565b60006130d8838361389e565b60208301905092915050565b6130ed81613db9565b82525050565b60006130fe82613cce565b6131088185613cfc565b935061311383613cbe565b8060005b8381101561314457815161312b88826130cc565b975061313683613cef565b925050600181019050613117565b5085935050505092915050565b61315a81613dcb565b82525050565b61316981613dd7565b82525050565b600061317a82613cd9565b6131848185613d0d565b9350613194818560208601613e53565b61319d81613f6f565b840191505092915050565b60006131b382613ce4565b6131bd8185613d1e565b93506131cd818560208601613e53565b6131d681613f6f565b840191505092915050565b60006131ee602b83613d1e565b91507f455243373231456e756d657261626c653a206f776e657220696e646578206f7560008301527f74206f6620626f756e64730000000000000000000000000000000000000000006020830152604082019050919050565b6000613254603283613d1e565b91507f4552433732313a207472616e7366657220746f206e6f6e20455243373231526560008301527f63656976657220696d706c656d656e74657200000000000000000000000000006020830152604082019050919050565b60006132ba602683613d1e565b91507f4f776e61626c653a206e6577206f776e657220697320746865207a65726f206160008301527f64647265737300000000000000000000000000000000000000000000000000006020830152604082019050919050565b6000613320601c83613d1e565b91507f4552433732313a20746f6b656e20616c7265616479206d696e746564000000006000830152602082019050919050565b6000613360602483613d1e565b91507f4552433732313a207472616e7366657220746f20746865207a65726f2061646460008301527f72657373000000000000000000000000000000000000000000000000000000006020830152604082019050919050565b60006133c6601983613d1e565b91507f4552433732313a20617070726f766520746f2063616c6c6572000000000000006000830152602082019050919050565b6000613406602c83613d1e565b91507f4552433732313a206f70657261746f7220717565727920666f72206e6f6e657860008301527f697374656e7420746f6b656e00000000000000000000000000000000000000006020830152604082019050919050565b600061346c603883613d1e565b91507f4552433732313a20617070726f76652063616c6c6572206973206e6f74206f7760008301527f6e6572206e6f7220617070726f76656420666f7220616c6c00000000000000006020830152604082019050919050565b60006134d2602a83613d1e565b91507f4552433732313a2062616c616e636520717565727920666f7220746865207a6560008301527f726f2061646472657373000000000000000000000000000000000000000000006020830152604082019050919050565b6000613538602983613d1e565b91507f4552433732313a206f776e657220717565727920666f72206e6f6e657869737460008301527f656e7420746f6b656e00000000000000000000000000000000000000000000006020830152604082019050919050565b600061359e602083613d1e565b91507f4552433732313a206d696e7420746f20746865207a65726f20616464726573736000830152602082019050919050565b60006135de602c83613d1e565b91507f4552433732313a20617070726f76656420717565727920666f72206e6f6e657860008301527f697374656e7420746f6b656e00000000000000000000000000000000000000006020830152604082019050919050565b6000613644602083613d1e565b91507f4f776e61626c653a2063616c6c6572206973206e6f7420746865206f776e65726000830152602082019050919050565b6000613684602983613d1e565b91507f4552433732313a207472616e73666572206f6620746f6b656e2074686174206960008301527f73206e6f74206f776e00000000000000000000000000000000000000000000006020830152604082019050919050565b60006136ea601d83613d1e565b91507f546f6b656e204944206d757374206265206265747765656e20312d3e340000006000830152602082019050919050565b600061372a602183613d1e565b91507f4552433732313a20617070726f76616c20746f2063757272656e74206f776e6560008301527f72000000000000000000000000000000000000000000000000000000000000006020830152604082019050919050565b6000613790603183613d1e565b91507f4552433732313a207472616e736665722063616c6c6572206973206e6f74206f60008301527f776e6572206e6f7220617070726f7665640000000000000000000000000000006020830152604082019050919050565b60006137f6602c83613d1e565b91507f455243373231456e756d657261626c653a20676c6f62616c20696e646578206f60008301527f7574206f6620626f756e647300000000000000000000000000000000000000006020830152604082019050919050565b600061385c601f83613d1e565b91507f5265656e7472616e637947756172643a207265656e7472616e742063616c6c006000830152602082019050919050565b61389881613e2d565b82525050565b6138a781613e37565b82525050565b6138b681613e37565b82525050565b60006020820190506138d160008301846130e4565b92915050565b60006080820190506138ec60008301876130e4565b6138f960208301866130e4565b613906604083018561388f565b8181036060830152613918818461316f565b905095945050505050565b6000606082019050818103600083015261393d81866130f3565b9050818103602083015261395181856130f3565b9050818103604083015261396581846130f3565b9050949350505050565b60006020820190506139846000830184613151565b92915050565b600060208201905061399f6000830184613160565b92915050565b600060208201905081810360008301526139bf81846131a8565b905092915050565b600060208201905081810360008301526139e0816131e1565b9050919050565b60006020820190508181036000830152613a0081613247565b9050919050565b60006020820190508181036000830152613a20816132ad565b9050919050565b60006020820190508181036000830152613a4081613313565b9050919050565b60006020820190508181036000830152613a6081613353565b9050919050565b60006020820190508181036000830152613a80816133b9565b9050919050565b60006020820190508181036000830152613aa0816133f9565b9050919050565b60006020820190508181036000830152613ac08161345f565b9050919050565b60006020820190508181036000830152613ae0816134c5565b9050919050565b60006020820190508181036000830152613b008161352b565b9050919050565b60006020820190508181036000830152613b2081613591565b9050919050565b60006020820190508181036000830152613b40816135d1565b9050919050565b60006020820190508181036000830152613b6081613637565b9050919050565b60006020820190508181036000830152613b8081613677565b9050919050565b60006020820190508181036000830152613ba0816136dd565b9050919050565b60006020820190508181036000830152613bc08161371d565b9050919050565b60006020820190508181036000830152613be081613783565b9050919050565b60006020820190508181036000830152613c00816137e9565b9050919050565b60006020820190508181036000830152613c208161384f565b9050919050565b6000602082019050613c3c600083018461388f565b92915050565b6000602082019050613c5760008301846138ad565b92915050565b6000604051905081810181811067ffffffffffffffff82111715613c8457613c83613f40565b5b8060405250919050565b600067ffffffffffffffff821115613ca957613ca8613f40565b5b601f19601f8301169050602081019050919050565b6000819050602082019050919050565b600081519050919050565b600081519050919050565b600081519050919050565b6000602082019050919050565b600082825260208201905092915050565b600082825260208201905092915050565b600082825260208201905092915050565b6000613d3a82613e2d565b9150613d4583613e2d565b9250827fffffffffffffffffffffffffffffffffffffffffffffffffffffffffffffffff03821115613d7a57613d79613ee2565b5b828201905092915050565b6000613d9082613e2d565b9150613d9b83613e2d565b925082821015613dae57613dad613ee2565b5b828203905092915050565b6000613dc482613e0d565b9050919050565b60008115159050919050565b6000819050919050565b60007fffffffff0000000000000000000000000000000000000000000000000000000082169050919050565b600073ffffffffffffffffffffffffffffffffffffffff82169050919050565b6000819050919050565b600060ff82169050919050565b82818337600083830152505050565b60005b83811015613e71578082015181840152602081019050613e56565b83811115613e80576000848401525b50505050565b60006002820490506001821680613e9e57607f821691505b60208210811415613eb257613eb1613f11565b5b50919050565b6000613ec382613e37565b915060ff821415613ed757613ed6613ee2565b5b600182019050919050565b7f4e487b7100000000000000000000000000000000000000000000000000000000600052601160045260246000fd5b7f4e487b7100000000000000000000000000000000000000000000000000000000600052602260045260246000fd5b7f4e487b7100000000000000000000000000000000000000000000000000000000600052604160045260246000fd5b6000601f19601f8301169050919050565b613f8981613db9565b8114613f9457600080fd5b50565b613fa081613dcb565b8114613fab57600080fd5b50565b613fb781613de1565b8114613fc257600080fd5b50565b613fce81613e2d565b8114613fd957600080fd5b5056fea26469706673582212209509b7b836484dca28daf32771f79774f6472303de6e4a5e116c432dd0913b8364736f6c63430008000033",
  "linkReferences": {},
  "deployedLinkReferences": {}
}